{
  "contractName": "Land",
  "abi": [
    {
      "inputs": [
        {
          "internalType": "string",
          "name": "_name",
          "type": "string"
        },
        {
          "internalType": "string",
          "name": "_symbol",
          "type": "string"
        },
        {
          "internalType": "uint256",
          "name": "_cost",
          "type": "uint256"
        }
      ],
      "stateMutability": "nonpayable",
      "type": "constructor"
    },
    {
      "anonymous": false,
      "inputs": [
        {
          "indexed": true,
          "internalType": "address",
          "name": "owner",
          "type": "address"
        },
        {
          "indexed": true,
          "internalType": "address",
          "name": "approved",
          "type": "address"
        },
        {
          "indexed": true,
          "internalType": "uint256",
          "name": "tokenId",
          "type": "uint256"
        }
      ],
      "name": "Approval",
      "type": "event"
    },
    {
      "anonymous": false,
      "inputs": [
        {
          "indexed": true,
          "internalType": "address",
          "name": "owner",
          "type": "address"
        },
        {
          "indexed": true,
          "internalType": "address",
          "name": "operator",
          "type": "address"
        },
        {
          "indexed": false,
          "internalType": "bool",
          "name": "approved",
          "type": "bool"
        }
      ],
      "name": "ApprovalForAll",
      "type": "event"
    },
    {
      "anonymous": false,
      "inputs": [
        {
          "indexed": true,
          "internalType": "address",
          "name": "from",
          "type": "address"
        },
        {
          "indexed": true,
          "internalType": "address",
          "name": "to",
          "type": "address"
        },
        {
          "indexed": true,
          "internalType": "uint256",
          "name": "tokenId",
          "type": "uint256"
        }
      ],
      "name": "Transfer",
      "type": "event"
    },
    {
      "inputs": [
        {
          "internalType": "address",
          "name": "to",
          "type": "address"
        },
        {
          "internalType": "uint256",
          "name": "tokenId",
          "type": "uint256"
        }
      ],
      "name": "approve",
      "outputs": [],
      "stateMutability": "nonpayable",
      "type": "function"
    },
    {
      "inputs": [
        {
          "internalType": "address",
          "name": "owner",
          "type": "address"
        }
      ],
      "name": "balanceOf",
      "outputs": [
        {
          "internalType": "uint256",
          "name": "",
          "type": "uint256"
        }
      ],
      "stateMutability": "view",
      "type": "function",
      "constant": true
    },
    {
      "inputs": [
        {
          "internalType": "uint256",
          "name": "",
          "type": "uint256"
        }
      ],
      "name": "buildings",
      "outputs": [
        {
          "internalType": "string",
          "name": "name",
          "type": "string"
        },
        {
          "internalType": "address",
          "name": "owner",
          "type": "address"
        },
        {
          "internalType": "int256",
          "name": "posX",
          "type": "int256"
        },
        {
          "internalType": "int256",
          "name": "posY",
          "type": "int256"
        },
        {
          "internalType": "int256",
          "name": "posZ",
          "type": "int256"
        },
        {
          "internalType": "uint256",
          "name": "sizeX",
          "type": "uint256"
        },
        {
          "internalType": "uint256",
          "name": "sizeY",
          "type": "uint256"
        },
        {
          "internalType": "uint256",
          "name": "sizeZ",
          "type": "uint256"
        }
      ],
      "stateMutability": "view",
      "type": "function",
      "constant": true
    },
    {
      "inputs": [],
      "name": "cost",
      "outputs": [
        {
          "internalType": "uint256",
          "name": "",
          "type": "uint256"
        }
      ],
      "stateMutability": "view",
      "type": "function",
      "constant": true
    },
    {
      "inputs": [
        {
          "internalType": "uint256",
          "name": "tokenId",
          "type": "uint256"
        }
      ],
      "name": "getApproved",
      "outputs": [
        {
          "internalType": "address",
          "name": "",
          "type": "address"
        }
      ],
      "stateMutability": "view",
      "type": "function",
      "constant": true
    },
    {
      "inputs": [
        {
          "internalType": "address",
          "name": "owner",
          "type": "address"
        },
        {
          "internalType": "address",
          "name": "operator",
          "type": "address"
        }
      ],
      "name": "isApprovedForAll",
      "outputs": [
        {
          "internalType": "bool",
          "name": "",
          "type": "bool"
        }
      ],
      "stateMutability": "view",
      "type": "function",
      "constant": true
    },
    {
      "inputs": [],
      "name": "maxSupply",
      "outputs": [
        {
          "internalType": "uint256",
          "name": "",
          "type": "uint256"
        }
      ],
      "stateMutability": "view",
      "type": "function",
      "constant": true
    },
    {
      "inputs": [],
      "name": "name",
      "outputs": [
        {
          "internalType": "string",
          "name": "",
          "type": "string"
        }
      ],
      "stateMutability": "view",
      "type": "function",
      "constant": true
    },
    {
      "inputs": [
        {
          "internalType": "uint256",
          "name": "tokenId",
          "type": "uint256"
        }
      ],
      "name": "ownerOf",
      "outputs": [
        {
          "internalType": "address",
          "name": "",
          "type": "address"
        }
      ],
      "stateMutability": "view",
      "type": "function",
      "constant": true
    },
    {
      "inputs": [
        {
          "internalType": "address",
          "name": "operator",
          "type": "address"
        },
        {
          "internalType": "bool",
          "name": "approved",
          "type": "bool"
        }
      ],
      "name": "setApprovalForAll",
      "outputs": [],
      "stateMutability": "nonpayable",
      "type": "function"
    },
    {
      "inputs": [
        {
          "internalType": "bytes4",
          "name": "interfaceId",
          "type": "bytes4"
        }
      ],
      "name": "supportsInterface",
      "outputs": [
        {
          "internalType": "bool",
          "name": "",
          "type": "bool"
        }
      ],
      "stateMutability": "view",
      "type": "function",
      "constant": true
    },
    {
      "inputs": [],
      "name": "symbol",
      "outputs": [
        {
          "internalType": "string",
          "name": "",
          "type": "string"
        }
      ],
      "stateMutability": "view",
      "type": "function",
      "constant": true
    },
    {
      "inputs": [
        {
          "internalType": "uint256",
          "name": "tokenId",
          "type": "uint256"
        }
      ],
      "name": "tokenURI",
      "outputs": [
        {
          "internalType": "string",
          "name": "",
          "type": "string"
        }
      ],
      "stateMutability": "view",
      "type": "function",
      "constant": true
    },
    {
      "inputs": [],
      "name": "totalSupply",
      "outputs": [
        {
          "internalType": "uint256",
          "name": "",
          "type": "uint256"
        }
      ],
      "stateMutability": "view",
      "type": "function",
      "constant": true
    },
    {
      "inputs": [
        {
          "internalType": "uint256",
          "name": "_id",
          "type": "uint256"
        }
      ],
      "name": "mint",
      "outputs": [],
      "stateMutability": "payable",
      "type": "function",
      "payable": true
    },
    {
      "inputs": [
        {
          "internalType": "address",
          "name": "from",
          "type": "address"
        },
        {
          "internalType": "address",
          "name": "to",
          "type": "address"
        },
        {
          "internalType": "uint256",
          "name": "tokenId",
          "type": "uint256"
        }
      ],
      "name": "transferFrom",
      "outputs": [],
      "stateMutability": "nonpayable",
      "type": "function"
    },
    {
      "inputs": [
        {
          "internalType": "address",
          "name": "from",
          "type": "address"
        },
        {
          "internalType": "address",
          "name": "to",
          "type": "address"
        },
        {
          "internalType": "uint256",
          "name": "tokenId",
          "type": "uint256"
        }
      ],
      "name": "safeTransferFrom",
      "outputs": [],
      "stateMutability": "nonpayable",
      "type": "function"
    },
    {
      "inputs": [
        {
          "internalType": "address",
          "name": "from",
          "type": "address"
        },
        {
          "internalType": "address",
          "name": "to",
          "type": "address"
        },
        {
          "internalType": "uint256",
          "name": "tokenId",
          "type": "uint256"
        },
        {
          "internalType": "bytes",
          "name": "_data",
          "type": "bytes"
        }
      ],
      "name": "safeTransferFrom",
      "outputs": [],
      "stateMutability": "nonpayable",
      "type": "function"
    },
    {
      "inputs": [],
      "name": "getBuildings",
      "outputs": [
        {
          "components": [
            {
              "internalType": "string",
              "name": "name",
              "type": "string"
            },
            {
              "internalType": "address",
              "name": "owner",
              "type": "address"
            },
            {
              "internalType": "int256",
              "name": "posX",
              "type": "int256"
            },
            {
              "internalType": "int256",
              "name": "posY",
              "type": "int256"
            },
            {
              "internalType": "int256",
              "name": "posZ",
              "type": "int256"
            },
            {
              "internalType": "uint256",
              "name": "sizeX",
              "type": "uint256"
            },
            {
              "internalType": "uint256",
              "name": "sizeY",
              "type": "uint256"
            },
            {
              "internalType": "uint256",
              "name": "sizeZ",
              "type": "uint256"
            }
          ],
          "internalType": "struct Land.Building[]",
          "name": "",
          "type": "tuple[]"
        }
      ],
      "stateMutability": "view",
      "type": "function",
      "constant": true
    },
    {
      "inputs": [
        {
          "internalType": "uint256",
          "name": "_id",
          "type": "uint256"
        }
      ],
      "name": "getBuilding",
      "outputs": [
        {
          "components": [
            {
              "internalType": "string",
              "name": "name",
              "type": "string"
            },
            {
              "internalType": "address",
              "name": "owner",
              "type": "address"
            },
            {
              "internalType": "int256",
              "name": "posX",
              "type": "int256"
            },
            {
              "internalType": "int256",
              "name": "posY",
              "type": "int256"
            },
            {
              "internalType": "int256",
              "name": "posZ",
              "type": "int256"
            },
            {
              "internalType": "uint256",
              "name": "sizeX",
              "type": "uint256"
            },
            {
              "internalType": "uint256",
              "name": "sizeY",
              "type": "uint256"
            },
            {
              "internalType": "uint256",
              "name": "sizeZ",
              "type": "uint256"
            }
          ],
          "internalType": "struct Land.Building",
          "name": "",
          "type": "tuple"
        }
      ],
      "stateMutability": "view",
      "type": "function",
      "constant": true
    }
  ],
  "bytecode": "0x6080604052670de0b6b3a7640000600655600560075560006008553480156200002757600080fd5b5060405162003c2d38038062003c2d83398181016040528101906200004d919062000a20565b828281600090805190602001906200006792919062000798565b5080600190805190602001906200008092919062000798565b5050508060068190555060096040518061010001604052806040518060400160405280600981526020017f436974792048616c6c00000000000000000000000000000000000000000000008152508152602001600073ffffffffffffffffffffffffffffffffffffffff168152602001600081526020016000815260200160008152602001600a8152602001600a8152602001600a815250908060018154018082558091505060019003906000526020600020906008020160009091909190915060008201518160000190805190602001906200015f92919062000798565b5060208201518160010160006101000a81548173ffffffffffffffffffffffffffffffffffffffff021916908373ffffffffffffffffffffffffffffffffffffffff16021790555060408201518160020155606082015181600301556080820151816004015560a0820151816005015560c0820151816006015560e08201518160070155505060096040518061010001604052806040518060400160405280600781526020017f5374616469756d000000000000000000000000000000000000000000000000008152508152602001600073ffffffffffffffffffffffffffffffffffffffff16815260200160008152602001600a815260200160008152602001600a815260200160058152602001600381525090806001815401808255809150506001900390600052602060002090600802016000909190919091506000820151816000019080519060200190620002ba92919062000798565b5060208201518160010160006101000a81548173ffffffffffffffffffffffffffffffffffffffff021916908373ffffffffffffffffffffffffffffffffffffffff16021790555060408201518160020155606082015181600301556080820151816004015560a0820151816005015560c0820151816006015560e08201518160070155505060096040518061010001604052806040518060400160405280600a81526020017f556e6976657273697479000000000000000000000000000000000000000000008152508152602001600073ffffffffffffffffffffffffffffffffffffffff168152602001600081526020017ffffffffffffffffffffffffffffffffffffffffffffffffffffffffffffffff6815260200160008152602001600a8152602001600581526020016003815250908060018154018082558091505060019003906000526020600020906008020160009091909190915060008201518160000190805190602001906200043492919062000798565b5060208201518160010160006101000a81548173ffffffffffffffffffffffffffffffffffffffff021916908373ffffffffffffffffffffffffffffffffffffffff16021790555060408201518160020155606082015181600301556080820151816004015560a0820151816005015560c0820151816006015560e08201518160070155505060096040518061010001604052806040518060400160405280601081526020017f53686f7070696e6720506c617a612031000000000000000000000000000000008152508152602001600073ffffffffffffffffffffffffffffffffffffffff168152602001600a8152602001600081526020016000815260200160058152602001601981526020016005815250908060018154018082558091505060019003906000526020600020906008020160009091909190915060008201518160000190805190602001906200058f92919062000798565b5060208201518160010160006101000a81548173ffffffffffffffffffffffffffffffffffffffff021916908373ffffffffffffffffffffffffffffffffffffffff16021790555060408201518160020155606082015181600301556080820151816004015560a0820151816005015560c0820151816006015560e08201518160070155505060096040518061010001604052806040518060400160405280601081526020017f53686f7070696e6720506c617a612032000000000000000000000000000000008152508152602001600073ffffffffffffffffffffffffffffffffffffffff1681526020017ffffffffffffffffffffffffffffffffffffffffffffffffffffffffffffffff68152602001600081526020016000815260200160058152602001601981526020016005815250908060018154018082558091505060019003906000526020600020906008020160009091909190915060008201518160000190805190602001906200070992919062000798565b5060208201518160010160006101000a81548173ffffffffffffffffffffffffffffffffffffffff021916908373ffffffffffffffffffffffffffffffffffffffff16021790555060408201518160020155606082015181600301556080820151816004015560a0820151816005015560c0820151816006015560e08201518160070155505050505062000b1f565b828054620007a69062000ae9565b90600052602060002090601f016020900481019282620007ca576000855562000816565b82601f10620007e557805160ff191683800117855562000816565b8280016001018555821562000816579182015b8281111562000815578251825591602001919060010190620007f8565b5b50905062000825919062000829565b5090565b5b80821115620008445760008160009055506001016200082a565b5090565b6000604051905090565b600080fd5b600080fd5b600080fd5b600080fd5b6000601f19601f8301169050919050565b7f4e487b7100000000000000000000000000000000000000000000000000000000600052604160045260246000fd5b620008b18262000866565b810181811067ffffffffffffffff82111715620008d357620008d262000877565b5b80604052505050565b6000620008e862000848565b9050620008f68282620008a6565b919050565b600067ffffffffffffffff82111562000919576200091862000877565b5b620009248262000866565b9050602081019050919050565b60005b838110156200095157808201518184015260208101905062000934565b8381111562000961576000848401525b50505050565b60006200097e6200097884620008fb565b620008dc565b9050828152602081018484840111156200099d576200099c62000861565b5b620009aa84828562000931565b509392505050565b600082601f830112620009ca57620009c96200085c565b5b8151620009dc84826020860162000967565b91505092915050565b6000819050919050565b620009fa81620009e5565b811462000a0657600080fd5b50565b60008151905062000a1a81620009ef565b92915050565b60008060006060848603121562000a3c5762000a3b62000852565b5b600084015167ffffffffffffffff81111562000a5d5762000a5c62000857565b5b62000a6b86828701620009b2565b935050602084015167ffffffffffffffff81111562000a8f5762000a8e62000857565b5b62000a9d86828701620009b2565b925050604062000ab08682870162000a09565b9150509250925092565b7f4e487b7100000000000000000000000000000000000000000000000000000000600052602260045260246000fd5b6000600282049050600182168062000b0257607f821691505b6020821081141562000b195762000b1862000aba565b5b50919050565b6130fe8062000b2f6000396000f3fe60806040526004361061011f5760003560e01c806370a08231116100a0578063b88d4fde11610064578063b88d4fde14610405578063c87b56dd1461042e578063d5abeb011461046b578063d9cf6a2614610496578063e985e9c5146104c15761011f565b806370a082311461031b57806395d89b41146103585780639dfd8b0214610383578063a0712d68146103c0578063a22cb465146103dc5761011f565b806318160ddd116100e757806318160ddd1461021d57806323b872dd1461024857806342842e0e146102715780634c96a0621461029a5780636352211e146102de5761011f565b806301ffc9a71461012457806306fdde0314610161578063081812fc1461018c578063095ea7b3146101c957806313faede6146101f2575b600080fd5b34801561013057600080fd5b5061014b60048036038101906101469190611ee2565b6104fe565b6040516101589190611f2a565b60405180910390f35b34801561016d57600080fd5b506101766105e0565b6040516101839190611fde565b60405180910390f35b34801561019857600080fd5b506101b360048036038101906101ae9190612036565b610672565b6040516101c091906120a4565b60405180910390f35b3480156101d557600080fd5b506101f060048036038101906101eb91906120eb565b6106b8565b005b3480156101fe57600080fd5b506102076107d0565b604051610214919061213a565b60405180910390f35b34801561022957600080fd5b506102326107d6565b60405161023f919061213a565b60405180910390f35b34801561025457600080fd5b5061026f600480360381019061026a9190612155565b6107dc565b005b34801561027d57600080fd5b5061029860048036038101906102939190612155565b6108ac565b005b3480156102a657600080fd5b506102c160048036038101906102bc9190612036565b6108cc565b6040516102d59897969594939291906121c1565b60405180910390f35b3480156102ea57600080fd5b5061030560048036038101906103009190612036565b6109cc565b60405161031291906120a4565b60405180910390f35b34801561032757600080fd5b50610342600480360381019061033d9190612246565b610a7e565b60405161034f919061213a565b60405180910390f35b34801561036457600080fd5b5061036d610b36565b60405161037a9190611fde565b60405180910390f35b34801561038f57600080fd5b506103aa60048036038101906103a59190612036565b610bc8565b6040516103b7919061239a565b60405180910390f35b6103da60048036038101906103d59190612036565b610d35565b005b3480156103e857600080fd5b5061040360048036038101906103fe91906123e8565b610e77565b005b34801561041157600080fd5b5061042c6004803603810190610427919061255d565b610e8d565b005b34801561043a57600080fd5b5061045560048036038101906104509190612036565b610f5f565b6040516104629190611fde565b60405180910390f35b34801561047757600080fd5b50610480610fc7565b60405161048d919061213a565b60405180910390f35b3480156104a257600080fd5b506104ab610fcd565b6040516104b89190612752565b60405180910390f35b3480156104cd57600080fd5b506104e860048036038101906104e39190612774565b611151565b6040516104f59190611f2a565b60405180910390f35b60007f80ac58cd000000000000000000000000000000000000000000000000000000007bffffffffffffffffffffffffffffffffffffffffffffffffffffffff1916827bffffffffffffffffffffffffffffffffffffffffffffffffffffffff191614806105c957507f5b5e139f000000000000000000000000000000000000000000000000000000007bffffffffffffffffffffffffffffffffffffffffffffffffffffffff1916827bffffffffffffffffffffffffffffffffffffffffffffffffffffffff1916145b806105d957506105d8826111e5565b5b9050919050565b6060600080546105ef906127e3565b80601f016020809104026020016040519081016040528092919081815260200182805461061b906127e3565b80156106685780601f1061063d57610100808354040283529160200191610668565b820191906000526020600020905b81548152906001019060200180831161064b57829003601f168201915b5050505050905090565b600061067d8261124f565b6004600083815260200190815260200160002060009054906101000a900473ffffffffffffffffffffffffffffffffffffffff169050919050565b60006106c3826109cc565b90508073ffffffffffffffffffffffffffffffffffffffff168373ffffffffffffffffffffffffffffffffffffffff161415610734576040517f08c379a000000000000000000000000000000000000000000000000000000000815260040161072b90612887565b60405180910390fd5b8073ffffffffffffffffffffffffffffffffffffffff1661075361129a565b73ffffffffffffffffffffffffffffffffffffffff16148061078257506107818161077c61129a565b611151565b5b6107c1576040517f08c379a00000000000000000000000000000000000000000000000000000000081526004016107b890612919565b60405180910390fd5b6107cb83836112a2565b505050565b60065481565b60085481565b6107ed6107e761129a565b8261135b565b61082c576040517f08c379a0000000000000000000000000000000000000000000000000000000008152600401610823906129ab565b60405180910390fd5b81600960018361083c91906129fa565b8154811061084d5761084c612a2e565b5b906000526020600020906008020160010160006101000a81548173ffffffffffffffffffffffffffffffffffffffff021916908373ffffffffffffffffffffffffffffffffffffffff1602179055506108a78383836113f0565b505050565b6108c783838360405180602001604052806000815250610e8d565b505050565b600981815481106108dc57600080fd5b90600052602060002090600802016000915090508060000180546108ff906127e3565b80601f016020809104026020016040519081016040528092919081815260200182805461092b906127e3565b80156109785780601f1061094d57610100808354040283529160200191610978565b820191906000526020600020905b81548152906001019060200180831161095b57829003601f168201915b5050505050908060010160009054906101000a900473ffffffffffffffffffffffffffffffffffffffff16908060020154908060030154908060040154908060050154908060060154908060070154905088565b6000806002600084815260200190815260200160002060009054906101000a900473ffffffffffffffffffffffffffffffffffffffff169050600073ffffffffffffffffffffffffffffffffffffffff168173ffffffffffffffffffffffffffffffffffffffff161415610a75576040517f08c379a0000000000000000000000000000000000000000000000000000000008152600401610a6c90612aa9565b60405180910390fd5b80915050919050565b60008073ffffffffffffffffffffffffffffffffffffffff168273ffffffffffffffffffffffffffffffffffffffff161415610aef576040517f08c379a0000000000000000000000000000000000000000000000000000000008152600401610ae690612b3b565b60405180910390fd5b600360008373ffffffffffffffffffffffffffffffffffffffff1673ffffffffffffffffffffffffffffffffffffffff168152602001908152602001600020549050919050565b606060018054610b45906127e3565b80601f0160208091040260200160405190810160405280929190818152602001828054610b71906127e3565b8015610bbe5780601f10610b9357610100808354040283529160200191610bbe565b820191906000526020600020905b815481529060010190602001808311610ba157829003601f168201915b5050505050905090565b610bd0611e1b565b6009600183610bdf91906129fa565b81548110610bf057610bef612a2e565b5b906000526020600020906008020160405180610100016040529081600082018054610c1a906127e3565b80601f0160208091040260200160405190810160405280929190818152602001828054610c46906127e3565b8015610c935780601f10610c6857610100808354040283529160200191610c93565b820191906000526020600020905b815481529060010190602001808311610c7657829003601f168201915b505050505081526020016001820160009054906101000a900473ffffffffffffffffffffffffffffffffffffffff1673ffffffffffffffffffffffffffffffffffffffff1673ffffffffffffffffffffffffffffffffffffffff16815260200160028201548152602001600382015481526020016004820154815260200160058201548152602001600682015481526020016007820154815250509050919050565b60006008549050600754811115610d4b57600080fd5b600073ffffffffffffffffffffffffffffffffffffffff166009600184610d7291906129fa565b81548110610d8357610d82612a2e565b5b906000526020600020906008020160010160009054906101000a900473ffffffffffffffffffffffffffffffffffffffff1673ffffffffffffffffffffffffffffffffffffffff1614610dd557600080fd5b600654341015610de457600080fd5b336009600184610df491906129fa565b81548110610e0557610e04612a2e565b5b906000526020600020906008020160010160006101000a81548173ffffffffffffffffffffffffffffffffffffffff021916908373ffffffffffffffffffffffffffffffffffffffff1602179055506001600854610e639190612b5b565b600881905550610e733383611657565b5050565b610e89610e8261129a565b8383611675565b5050565b610e9e610e9861129a565b8361135b565b610edd576040517f08c379a0000000000000000000000000000000000000000000000000000000008152600401610ed4906129ab565b60405180910390fd5b826009600184610eed91906129fa565b81548110610efe57610efd612a2e565b5b906000526020600020906008020160010160006101000a81548173ffffffffffffffffffffffffffffffffffffffff021916908373ffffffffffffffffffffffffffffffffffffffff160217905550610f59848484846117e2565b50505050565b6060610f6a8261124f565b6000610f7461183e565b90506000815111610f945760405180602001604052806000815250610fbf565b80610f9e84611855565b604051602001610faf929190612bed565b6040516020818303038152906040525b915050919050565b60075481565b60606009805480602002602001604051908101604052809291908181526020016000905b82821015611148578382906000526020600020906008020160405180610100016040529081600082018054611025906127e3565b80601f0160208091040260200160405190810160405280929190818152602001828054611051906127e3565b801561109e5780601f106110735761010080835404028352916020019161109e565b820191906000526020600020905b81548152906001019060200180831161108157829003601f168201915b505050505081526020016001820160009054906101000a900473ffffffffffffffffffffffffffffffffffffffff1673ffffffffffffffffffffffffffffffffffffffff1673ffffffffffffffffffffffffffffffffffffffff168152602001600282015481526020016003820154815260200160048201548152602001600582015481526020016006820154815260200160078201548152505081526020019060010190610ff1565b50505050905090565b6000600560008473ffffffffffffffffffffffffffffffffffffffff1673ffffffffffffffffffffffffffffffffffffffff16815260200190815260200160002060008373ffffffffffffffffffffffffffffffffffffffff1673ffffffffffffffffffffffffffffffffffffffff16815260200190815260200160002060009054906101000a900460ff16905092915050565b60007f01ffc9a7000000000000000000000000000000000000000000000000000000007bffffffffffffffffffffffffffffffffffffffffffffffffffffffff1916827bffffffffffffffffffffffffffffffffffffffffffffffffffffffff1916149050919050565b611258816119b6565b611297576040517f08c379a000000000000000000000000000000000000000000000000000000000815260040161128e90612aa9565b60405180910390fd5b50565b600033905090565b816004600083815260200190815260200160002060006101000a81548173ffffffffffffffffffffffffffffffffffffffff021916908373ffffffffffffffffffffffffffffffffffffffff160217905550808273ffffffffffffffffffffffffffffffffffffffff16611315836109cc565b73ffffffffffffffffffffffffffffffffffffffff167f8c5be1e5ebec7d5bd14f71427d1e84f3dd0314c0f7b2291e5b200ac8c7c3b92560405160405180910390a45050565b600080611367836109cc565b90508073ffffffffffffffffffffffffffffffffffffffff168473ffffffffffffffffffffffffffffffffffffffff1614806113a957506113a88185611151565b5b806113e757508373ffffffffffffffffffffffffffffffffffffffff166113cf84610672565b73ffffffffffffffffffffffffffffffffffffffff16145b91505092915050565b8273ffffffffffffffffffffffffffffffffffffffff16611410826109cc565b73ffffffffffffffffffffffffffffffffffffffff1614611466576040517f08c379a000000000000000000000000000000000000000000000000000000000815260040161145d90612c83565b60405180910390fd5b600073ffffffffffffffffffffffffffffffffffffffff168273ffffffffffffffffffffffffffffffffffffffff1614156114d6576040517f08c379a00000000000000000000000000000000000000000000000000000000081526004016114cd90612d15565b60405180910390fd5b6114e1838383611a22565b6114ec6000826112a2565b6001600360008573ffffffffffffffffffffffffffffffffffffffff1673ffffffffffffffffffffffffffffffffffffffff168152602001908152602001600020600082825461153c91906129fa565b925050819055506001600360008473ffffffffffffffffffffffffffffffffffffffff1673ffffffffffffffffffffffffffffffffffffffff16815260200190815260200160002060008282546115939190612b5b565b92505081905550816002600083815260200190815260200160002060006101000a81548173ffffffffffffffffffffffffffffffffffffffff021916908373ffffffffffffffffffffffffffffffffffffffff160217905550808273ffffffffffffffffffffffffffffffffffffffff168473ffffffffffffffffffffffffffffffffffffffff167fddf252ad1be2c89b69c2b068fc378daa952ba7f163c4a11628f55a4df523b3ef60405160405180910390a4611652838383611a27565b505050565b611671828260405180602001604052806000815250611a2c565b5050565b8173ffffffffffffffffffffffffffffffffffffffff168373ffffffffffffffffffffffffffffffffffffffff1614156116e4576040517f08c379a00000000000000000000000000000000000000000000000000000000081526004016116db90612d81565b60405180910390fd5b80600560008573ffffffffffffffffffffffffffffffffffffffff1673ffffffffffffffffffffffffffffffffffffffff16815260200190815260200160002060008473ffffffffffffffffffffffffffffffffffffffff1673ffffffffffffffffffffffffffffffffffffffff16815260200190815260200160002060006101000a81548160ff0219169083151502179055508173ffffffffffffffffffffffffffffffffffffffff168373ffffffffffffffffffffffffffffffffffffffff167f17307eab39ab6107e8899845ad3d59bd9653f200f220920489ca2b5937696c31836040516117d59190611f2a565b60405180910390a3505050565b6117ed8484846113f0565b6117f984848484611a87565b611838576040517f08c379a000000000000000000000000000000000000000000000000000000000815260040161182f90612e13565b60405180910390fd5b50505050565b606060405180602001604052806000815250905090565b6060600082141561189d576040518060400160405280600181526020017f300000000000000000000000000000000000000000000000000000000000000081525090506119b1565b600082905060005b600082146118cf5780806118b890612e33565b915050600a826118c89190612eab565b91506118a5565b60008167ffffffffffffffff8111156118eb576118ea612432565b5b6040519080825280601f01601f19166020018201604052801561191d5781602001600182028036833780820191505090505b5090505b600085146119aa5760018261193691906129fa565b9150600a856119459190612edc565b60306119519190612b5b565b60f81b81838151811061196757611966612a2e565b5b60200101907effffffffffffffffffffffffffffffffffffffffffffffffffffffffffffff1916908160001a905350600a856119a39190612eab565b9450611921565b8093505050505b919050565b60008073ffffffffffffffffffffffffffffffffffffffff166002600084815260200190815260200160002060009054906101000a900473ffffffffffffffffffffffffffffffffffffffff1673ffffffffffffffffffffffffffffffffffffffff1614159050919050565b505050565b505050565b611a368383611c1e565b611a436000848484611a87565b611a82576040517f08c379a0000000000000000000000000000000000000000000000000000000008152600401611a7990612e13565b60405180910390fd5b505050565b6000611aa88473ffffffffffffffffffffffffffffffffffffffff16611df8565b15611c11578373ffffffffffffffffffffffffffffffffffffffff1663150b7a02611ad161129a565b8786866040518563ffffffff1660e01b8152600401611af39493929190612f62565b602060405180830381600087803b158015611b0d57600080fd5b505af1925050508015611b3e57506040513d601f19601f82011682018060405250810190611b3b9190612fc3565b60015b611bc1573d8060008114611b6e576040519150601f19603f3d011682016040523d82523d6000602084013e611b73565b606091505b50600081511415611bb9576040517f08c379a0000000000000000000000000000000000000000000000000000000008152600401611bb090612e13565b60405180910390fd5b805181602001fd5b63150b7a0260e01b7bffffffffffffffffffffffffffffffffffffffffffffffffffffffff1916817bffffffffffffffffffffffffffffffffffffffffffffffffffffffff191614915050611c16565b600190505b949350505050565b600073ffffffffffffffffffffffffffffffffffffffff168273ffffffffffffffffffffffffffffffffffffffff161415611c8e576040517f08c379a0000000000000000000000000000000000000000000000000000000008152600401611c859061303c565b60405180910390fd5b611c97816119b6565b15611cd7576040517f08c379a0000000000000000000000000000000000000000000000000000000008152600401611cce906130a8565b60405180910390fd5b611ce360008383611a22565b6001600360008473ffffffffffffffffffffffffffffffffffffffff1673ffffffffffffffffffffffffffffffffffffffff1681526020019081526020016000206000828254611d339190612b5b565b92505081905550816002600083815260200190815260200160002060006101000a81548173ffffffffffffffffffffffffffffffffffffffff021916908373ffffffffffffffffffffffffffffffffffffffff160217905550808273ffffffffffffffffffffffffffffffffffffffff16600073ffffffffffffffffffffffffffffffffffffffff167fddf252ad1be2c89b69c2b068fc378daa952ba7f163c4a11628f55a4df523b3ef60405160405180910390a4611df460008383611a27565b5050565b6000808273ffffffffffffffffffffffffffffffffffffffff163b119050919050565b60405180610100016040528060608152602001600073ffffffffffffffffffffffffffffffffffffffff1681526020016000815260200160008152602001600081526020016000815260200160008152602001600081525090565b6000604051905090565b600080fd5b600080fd5b60007fffffffff0000000000000000000000000000000000000000000000000000000082169050919050565b611ebf81611e8a565b8114611eca57600080fd5b50565b600081359050611edc81611eb6565b92915050565b600060208284031215611ef857611ef7611e80565b5b6000611f0684828501611ecd565b91505092915050565b60008115159050919050565b611f2481611f0f565b82525050565b6000602082019050611f3f6000830184611f1b565b92915050565b600081519050919050565b600082825260208201905092915050565b60005b83811015611f7f578082015181840152602081019050611f64565b83811115611f8e576000848401525b50505050565b6000601f19601f8301169050919050565b6000611fb082611f45565b611fba8185611f50565b9350611fca818560208601611f61565b611fd381611f94565b840191505092915050565b60006020820190508181036000830152611ff88184611fa5565b905092915050565b6000819050919050565b61201381612000565b811461201e57600080fd5b50565b6000813590506120308161200a565b92915050565b60006020828403121561204c5761204b611e80565b5b600061205a84828501612021565b91505092915050565b600073ffffffffffffffffffffffffffffffffffffffff82169050919050565b600061208e82612063565b9050919050565b61209e81612083565b82525050565b60006020820190506120b96000830184612095565b92915050565b6120c881612083565b81146120d357600080fd5b50565b6000813590506120e5816120bf565b92915050565b6000806040838503121561210257612101611e80565b5b6000612110858286016120d6565b925050602061212185828601612021565b9150509250929050565b61213481612000565b82525050565b600060208201905061214f600083018461212b565b92915050565b60008060006060848603121561216e5761216d611e80565b5b600061217c868287016120d6565b935050602061218d868287016120d6565b925050604061219e86828701612021565b9150509250925092565b6000819050919050565b6121bb816121a8565b82525050565b60006101008201905081810360008301526121dc818b611fa5565b90506121eb602083018a612095565b6121f860408301896121b2565b61220560608301886121b2565b61221260808301876121b2565b61221f60a083018661212b565b61222c60c083018561212b565b61223960e083018461212b565b9998505050505050505050565b60006020828403121561225c5761225b611e80565b5b600061226a848285016120d6565b91505092915050565b600082825260208201905092915050565b600061228f82611f45565b6122998185612273565b93506122a9818560208601611f61565b6122b281611f94565b840191505092915050565b6122c681612083565b82525050565b6122d5816121a8565b82525050565b6122e481612000565b82525050565b60006101008301600083015184820360008601526123088282612284565b915050602083015161231d60208601826122bd565b50604083015161233060408601826122cc565b50606083015161234360608601826122cc565b50608083015161235660808601826122cc565b5060a083015161236960a08601826122db565b5060c083015161237c60c08601826122db565b5060e083015161238f60e08601826122db565b508091505092915050565b600060208201905081810360008301526123b481846122ea565b905092915050565b6123c581611f0f565b81146123d057600080fd5b50565b6000813590506123e2816123bc565b92915050565b600080604083850312156123ff576123fe611e80565b5b600061240d858286016120d6565b925050602061241e858286016123d3565b9150509250929050565b600080fd5b600080fd5b7f4e487b7100000000000000000000000000000000000000000000000000000000600052604160045260246000fd5b61246a82611f94565b810181811067ffffffffffffffff8211171561248957612488612432565b5b80604052505050565b600061249c611e76565b90506124a88282612461565b919050565b600067ffffffffffffffff8211156124c8576124c7612432565b5b6124d182611f94565b9050602081019050919050565b82818337600083830152505050565b60006125006124fb846124ad565b612492565b90508281526020810184848401111561251c5761251b61242d565b5b6125278482856124de565b509392505050565b600082601f83011261254457612543612428565b5b81356125548482602086016124ed565b91505092915050565b6000806000806080858703121561257757612576611e80565b5b6000612585878288016120d6565b9450506020612596878288016120d6565b93505060406125a787828801612021565b925050606085013567ffffffffffffffff8111156125c8576125c7611e85565b5b6125d48782880161252f565b91505092959194509250565b600081519050919050565b600082825260208201905092915050565b6000819050602082019050919050565b600061010083016000830151848203600086015261262a8282612284565b915050602083015161263f60208601826122bd565b50604083015161265260408601826122cc565b50606083015161266560608601826122cc565b50608083015161267860808601826122cc565b5060a083015161268b60a08601826122db565b5060c083015161269e60c08601826122db565b5060e08301516126b160e08601826122db565b508091505092915050565b60006126c8838361260c565b905092915050565b6000602082019050919050565b60006126e8826125e0565b6126f281856125eb565b935083602082028501612704856125fc565b8060005b85811015612740578484038952815161272185826126bc565b945061272c836126d0565b925060208a01995050600181019050612708565b50829750879550505050505092915050565b6000602082019050818103600083015261276c81846126dd565b905092915050565b6000806040838503121561278b5761278a611e80565b5b6000612799858286016120d6565b92505060206127aa858286016120d6565b9150509250929050565b7f4e487b7100000000000000000000000000000000000000000000000000000000600052602260045260246000fd5b600060028204905060018216806127fb57607f821691505b6020821081141561280f5761280e6127b4565b5b50919050565b7f4552433732313a20617070726f76616c20746f2063757272656e74206f776e6560008201527f7200000000000000000000000000000000000000000000000000000000000000602082015250565b6000612871602183611f50565b915061287c82612815565b604082019050919050565b600060208201905081810360008301526128a081612864565b9050919050565b7f4552433732313a20617070726f76652063616c6c6572206973206e6f7420746f60008201527f6b656e206f776e6572206e6f7220617070726f76656420666f7220616c6c0000602082015250565b6000612903603e83611f50565b915061290e826128a7565b604082019050919050565b60006020820190508181036000830152612932816128f6565b9050919050565b7f4552433732313a207472616e736665722063616c6c6572206973206e6f74206f60008201527f776e6572206e6f7220617070726f766564000000000000000000000000000000602082015250565b6000612995603183611f50565b91506129a082612939565b604082019050919050565b600060208201905081810360008301526129c481612988565b9050919050565b7f4e487b7100000000000000000000000000000000000000000000000000000000600052601160045260246000fd5b6000612a0582612000565b9150612a1083612000565b925082821015612a2357612a226129cb565b5b828203905092915050565b7f4e487b7100000000000000000000000000000000000000000000000000000000600052603260045260246000fd5b7f4552433732313a20696e76616c696420746f6b656e2049440000000000000000600082015250565b6000612a93601883611f50565b9150612a9e82612a5d565b602082019050919050565b60006020820190508181036000830152612ac281612a86565b9050919050565b7f4552433732313a2061646472657373207a65726f206973206e6f74206120766160008201527f6c6964206f776e65720000000000000000000000000000000000000000000000602082015250565b6000612b25602983611f50565b9150612b3082612ac9565b604082019050919050565b60006020820190508181036000830152612b5481612b18565b9050919050565b6000612b6682612000565b9150612b7183612000565b9250827fffffffffffffffffffffffffffffffffffffffffffffffffffffffffffffffff03821115612ba657612ba56129cb565b5b828201905092915050565b600081905092915050565b6000612bc782611f45565b612bd18185612bb1565b9350612be1818560208601611f61565b80840191505092915050565b6000612bf98285612bbc565b9150612c058284612bbc565b91508190509392505050565b7f4552433732313a207472616e736665722066726f6d20696e636f72726563742060008201527f6f776e6572000000000000000000000000000000000000000000000000000000602082015250565b6000612c6d602583611f50565b9150612c7882612c11565b604082019050919050565b60006020820190508181036000830152612c9c81612c60565b9050919050565b7f4552433732313a207472616e7366657220746f20746865207a65726f2061646460008201527f7265737300000000000000000000000000000000000000000000000000000000602082015250565b6000612cff602483611f50565b9150612d0a82612ca3565b604082019050919050565b60006020820190508181036000830152612d2e81612cf2565b9050919050565b7f4552433732313a20617070726f766520746f2063616c6c657200000000000000600082015250565b6000612d6b601983611f50565b9150612d7682612d35565b602082019050919050565b60006020820190508181036000830152612d9a81612d5e565b9050919050565b7f4552433732313a207472616e7366657220746f206e6f6e20455243373231526560008201527f63656976657220696d706c656d656e7465720000000000000000000000000000602082015250565b6000612dfd603283611f50565b9150612e0882612da1565b604082019050919050565b60006020820190508181036000830152612e2c81612df0565b9050919050565b6000612e3e82612000565b91507fffffffffffffffffffffffffffffffffffffffffffffffffffffffffffffffff821415612e7157612e706129cb565b5b600182019050919050565b7f4e487b7100000000000000000000000000000000000000000000000000000000600052601260045260246000fd5b6000612eb682612000565b9150612ec183612000565b925082612ed157612ed0612e7c565b5b828204905092915050565b6000612ee782612000565b9150612ef283612000565b925082612f0257612f01612e7c565b5b828206905092915050565b600081519050919050565b600082825260208201905092915050565b6000612f3482612f0d565b612f3e8185612f18565b9350612f4e818560208601611f61565b612f5781611f94565b840191505092915050565b6000608082019050612f776000830187612095565b612f846020830186612095565b612f91604083018561212b565b8181036060830152612fa38184612f29565b905095945050505050565b600081519050612fbd81611eb6565b92915050565b600060208284031215612fd957612fd8611e80565b5b6000612fe784828501612fae565b91505092915050565b7f4552433732313a206d696e7420746f20746865207a65726f2061646472657373600082015250565b6000613026602083611f50565b915061303182612ff0565b602082019050919050565b6000602082019050818103600083015261305581613019565b9050919050565b7f4552433732313a20746f6b656e20616c7265616479206d696e74656400000000600082015250565b6000613092601c83611f50565b915061309d8261305c565b602082019050919050565b600060208201905081810360008301526130c181613085565b905091905056fea26469706673582212202cec55d3820d8c0b83b5a27bb8d347e301dae34a4a252c58eba42c277ffef27864736f6c63430008090033",
  "immutableReferences": {},
  "source": "// SPDX-License-Identifier: MIT\r\npragma solidity ^0.8.0;\r\n\r\nimport \"@openzeppelin/contracts/token/ERC721/ERC721.sol\";\r\n\r\ncontract Land is ERC721 {\r\n    uint256 public cost = 1 ether;\r\n    uint256 public maxSupply = 5;\r\n    uint256 public totalSupply = 0;\r\n\r\n    struct Building {\r\n        string name;\r\n        address owner;\r\n        int256 posX;\r\n        int256 posY;\r\n        int256 posZ;\r\n        uint256 sizeX;\r\n        uint256 sizeY;\r\n        uint256 sizeZ;\r\n    }\r\n\r\n    Building[] public buildings;\r\n\r\n    constructor(\r\n        string memory _name,\r\n        string memory _symbol,\r\n        uint256 _cost\r\n    ) ERC721(_name, _symbol) {\r\n        cost = _cost;\r\n\r\n        buildings.push(\r\n            Building(\"City Hall\", address(0x0), 0, 0, 0, 10, 10, 10)\r\n        );\r\n        buildings.push(Building(\"Stadium\", address(0x0), 0, 10, 0, 10, 5, 3));\r\n        buildings.push(\r\n            Building(\"University\", address(0x0), 0, -10, 0, 10, 5, 3)\r\n        );\r\n        buildings.push(\r\n            Building(\"Shopping Plaza 1\", address(0x0), 10, 0, 0, 5, 25, 5)\r\n        );\r\n        buildings.push(\r\n            Building(\"Shopping Plaza 2\", address(0x0), -10, 0, 0, 5, 25, 5)\r\n        );\r\n    }\r\n\r\n    function mint(uint256 _id) public payable {\r\n        uint256 supply = totalSupply;\r\n        require(supply <= maxSupply);\r\n        require(buildings[_id - 1].owner == address(0x0));\r\n        require(msg.value >= cost);\r\n\r\n        // NOTE: tokenID always starts from 1, but our array starts from 0\r\n        buildings[_id - 1].owner = msg.sender;\r\n        totalSupply = totalSupply + 1;\r\n\r\n        _safeMint(msg.sender, _id);\r\n    }\r\n\r\n    function transferFrom(\r\n        address from,\r\n        address to,\r\n        uint256 tokenId\r\n    ) public override {\r\n        require(\r\n            _isApprovedOrOwner(_msgSender(), tokenId),\r\n            \"ERC721: transfer caller is not owner nor approved\"\r\n        );\r\n\r\n        // Update Building ownership\r\n        buildings[tokenId - 1].owner = to;\r\n\r\n        _transfer(from, to, tokenId);\r\n    }\r\n\r\n    function safeTransferFrom(\r\n        address from,\r\n        address to,\r\n        uint256 tokenId,\r\n        bytes memory _data\r\n    ) public override {\r\n        require(\r\n            _isApprovedOrOwner(_msgSender(), tokenId),\r\n            \"ERC721: transfer caller is not owner nor approved\"\r\n        );\r\n\r\n        // Update Building ownership\r\n        buildings[tokenId - 1].owner = to;\r\n\r\n        _safeTransfer(from, to, tokenId, _data);\r\n    }\r\n\r\n    // Public View Functions\r\n    function getBuildings() public view returns (Building[] memory) {\r\n        return buildings;\r\n    }\r\n\r\n    function getBuilding(uint256 _id) public view returns (Building memory) {\r\n        return buildings[_id - 1];\r\n    }\r\n}\r\n",
  "sourcePath": "D:\\workspace\\metaverse\\src\\contracts\\Land.sol",
  "compiler": {
    "name": "solc",
    "version": "0.8.9+commit.e5eed63a.Emscripten.clang"
  },
  "schemaVersion": "3.4.9",
  "updatedAt": "2022-09-14T06:34:06.226Z",
  "networkType": "ethereum",
  "devdoc": {
    "kind": "dev",
    "methods": {
      "approve(address,uint256)": {
        "details": "See {IERC721-approve}."
      },
      "balanceOf(address)": {
        "details": "See {IERC721-balanceOf}."
      },
      "getApproved(uint256)": {
        "details": "See {IERC721-getApproved}."
      },
      "isApprovedForAll(address,address)": {
        "details": "See {IERC721-isApprovedForAll}."
      },
      "name()": {
        "details": "See {IERC721Metadata-name}."
      },
      "ownerOf(uint256)": {
        "details": "See {IERC721-ownerOf}."
      },
      "safeTransferFrom(address,address,uint256)": {
        "details": "See {IERC721-safeTransferFrom}."
      },
      "setApprovalForAll(address,bool)": {
        "details": "See {IERC721-setApprovalForAll}."
      },
      "supportsInterface(bytes4)": {
        "details": "See {IERC165-supportsInterface}."
      },
      "symbol()": {
        "details": "See {IERC721Metadata-symbol}."
      },
      "tokenURI(uint256)": {
        "details": "See {IERC721Metadata-tokenURI}."
      },
      "transferFrom(address,address,uint256)": {
        "details": "See {IERC721-transferFrom}."
      }
    },
    "version": 1
  },
  "userdoc": {
    "kind": "user",
    "methods": {},
    "version": 1
  }
}